:100188003F065B4F666D7D077F6F777C395E7971BF
:010198004026
:0F019900010A00010B00010C00010D000108001C
:0B01A900EF1FAC0670011E4C70F62228
:100003007D01ED14B40800507290001A75F003A43A
:10001300C58325F0C5837302003202003C0200460B
:10002300020050020060020068020070020078C201
:10003300A4C2A3C2A2E50D801CC2A4C2A3D2A2E59E
:100043000C8012C2A4D2A3C2A2E50B8008C2A4D220
:10005300A3D2A2E50A90018893F580801ED2A4C2A0
:10006300A3C2A28016D2A4C2A3D2A2800ED2A4D2CB
:10007300A3C2A28006D2A4D2A3D2A27FC87E0012BA
:0E00830001A9E4F5800DED640960030200059B
:01009100224C
:10015600E4FFE5B0540FFEE50814601314601C2498
:1001660002701EEE640F60197508018E098012EE8A
:10017600B50906FF75080280088003BE0F03E4F583
:010186000870
:010187002255
:10011E00120156BF0D0A050AE50AB40A03E4F50AF0
:10012E00BF0E0A050BE50BB40A03E4F50BBF0B0A71
:10013E00050CE50CB40A03E4F50CBF070A050DE542
:07014E000AB40A03E4F50DF9
:010155002287
:0801B40012000312011E80F885
:0300000002009269
:0C009200787FE4F6D8FD75810D0200D9DE
:10009E000201B4E493A3F8E493A34003F68001F2C3
:1000AE0008DFF48029E493A3F85407240CC8C33363
:1000BE00C4540F4420C8834004F456800146F6DF32
:1000CE00E4800B0102040810204080900199E47E28
:1000DE00019360BCA3FF543F30E509541FFEE49327
:1000EE00A360010ECF54C025E060A840B8E493A3EE
:1000FE00FAE493A3F8E493A3C8C582C8CAC583CA19
:10010E00F0A3C8C582C8CAC583CADFE9DEE780BED0
:0101A8000056
:00000001FF
