:0E0309008C88868482808A8D89878583818B8B
:0901A5000754181215204400064D
:10023C00C2B500C2B600D2B500E4FEEF1392B4EF23
:10024C00C313FFD2B600C2B6000EBE08EEE4FEED3C
:10025C001392B4EDC313FDD2B600C2B6000EBE08A5
:04026C00EEC2B50029
:01027000226B
:1001FA00C2B500C2B600D2B500E4FDEF1392B4EF67
:10020A00C313FFD2B600C2B6000DBD08EEE4FD303E
:10021A00B403430680EEC313FEC2B600D2B6000D85
:10022A00BD08ECC2B500D2B600C2B400D2B400AF69
:01023A0006BD
:01023B0022A0
:10029800E4FD7F8E12023CE4FCEC90030993FF74AA
:1002A800542CF8E6FD12023C0CBC07ED7D807F8ED5
:0302B80002023C03
:1002BB00E4FCEC90031093FF1201FA74542CF8A693
:0502CB00070CBC07ED6B
:0102D000220B
:0B031700EF1FAC0670011E4C70F622B8
:1002E7008F80C2A6C2A5D2A7C2A77F087E0002033D
:0102F70017EF
:1002F8008F80D2A6C2A5D2A7C2A77F087E0002031C
:0103080017DD
:1002D100EDBF01052480FA800324C0FAAF021202A7
:0602E100E7AF030202F882
:100271007F381202E77FDC7E051203177F381202F6
:10028100E77F0C1202E77F061202E77F011202E705
:070291007FD07E0702031776
:1001AE00094330303A30303A3030000B08323031BB
:1001BE00382D30312D3031002030133030300000EA
:1001CE00004D6F6E2E0000547565732E00576564DA
:1001DE002E0000546875722E004672692E00005370
:0B01EE0061742E000053756E2E00009F
:10013B001202BBE557C4540F2430F543E557540F57
:10014B002430F544E558C4540F2430F546E5585493
:10015B000F2430F547E559C4540F2430F549E559C0
:10016B00540F2430F54AE554C4540F2430F50AE5F6
:10017B0054540F2430F50BE555C4540F2430F50DB2
:10018B00E555540F2430F50EE556C4540F2430F5C5
:0A019B0010E556540F2430F5112230
:10000300120271120298754E00754F04E4F550F513
:1000130051F55275530B12013BE4F54CF54D744306
:10002300254DF8E6FB6020054FE54F7002054E14A1
:10003300FD7F021202D17F647E00120317054DE596
:100043004D70DB054C80D7E4F54CF54D7408254D18
:10005300F8E6FB60200551E5517002055014FD7F61
:10006300011202D17F647E00120317054DE54D7026
:10007300DB054C80D7E4F54CF54DE55A75F006A445
:100083002413254DF8E6FB70030200090553E553DD
:100093007002055214FD7F011202D17F647E0012AB
:0C00A3000317054DE54D70D2054C80CED2
:030000000200AF4C
:0C00AF00787FE4F6D8FD75815A0200F657
:1000BB00020003E493A3F8E493A34003F68001F258
:1000CB0008DFF48029E493A3F85407240CC8C33346
:1000DB00C4540F4420C8834004F456800146F6DF15
:1000EB00E4800B01020408102040809001A5E47EFF
:1000FB00019360BCA3FF543F30E509541FFEE4930A
:10010B00A360010ECF54C025E060A840B8E493A3D0
:10011B00FAE493A3F8E493A3C8C582C8CAC583CAFB
:10012B00F0A3C8C582C8CAC583CADFE9DEE780BEB3
:0101F9000005
:00000001FF
