:020000040800F2
:10000000600600206D0100080506000821050008B3
:10001000010600082702000801080008000000008F
:10002000000000000000000000000000B106000811
:100030002B020008000000008D0600089D07000844
:100040008701000887010008870100088701000870
:100050008701000887010008870100088701000860
:100060008701000887010008710200088701000865
:100070008701000887010008870100088701000840
:100080008701000887010008870100088701000830
:10009000870100088701000887010008B1020008F5
:1000A0008701000887010008870100088701000810
:1000B0008701000887010008870100088701000800
:1000C00087010008870100088701000887010008F0
:1000D00087010008870100088701000887010008E0
:1000E0002D020008870100088701000800F002F8CF
:1000F00000F02CF80AA090E8000C82448344AAF196
:100100000107DA4501D100F021F8AFF2090EBAE893
:100110000F0013F0010F18BFFB1A43F0010318473B
:10012000780700008807000000230024002500262F
:10013000103A28BF78C1FBD8520728BF30C148BF4A
:100140000B6070471FB51FBD10B510BD00F031F832
:100150001146FFF7F7FF00F079FB00F04FF803B40A
:10016000FFF7F2FF03BC00F057F800000948804792
:1001700009480047FEE7FEE7FEE7FEE7FEE7FEE789
:10018000FEE7FEE7FEE7FEE704480549054A064BA1
:1001900070470000A1070008ED0000086000002083
:1001A0006006002060020020600200207047704757
:1001B0007047754600F02CF8AE4605006946534678
:1001C00020F00700854618B020B5FFF7DDFFBDE839
:1001D00020404FF000064FF000074FF000084FF0AE
:1001E000000B21F00701AC46ACE8C009ACE8C0093F
:1001F000ACE8C009ACE8C0098D46704710B50446AC
:10020000AFF300802046BDE81040FFF7A8BF000014
:10021000004870470000002001491820ABBEFEE7EF
:1002200026000200704700BFFEE7704710B50A20A5
:1002300000F0E8FA4FF480610B4800F056F968B915
:1002400002210A4800F05AF908B9012000E0002014
:10025000044622460221054800F05DF94FF47C4037
:1002600000F048F810BD000000080140000C0140FB
:1002700010B50A2000F0C6FA10210B4800F035F93D
:1002800068B90221094800F039F908B9012000E0F5
:100290000020044622460221044800F03CF91020C8
:1002A00000F028F810BD000000080140000C0140DB
:1002B00010B50A2000F0A6FA4FF400710B4800F0C8
:1002C00014F968B901210A4800F018F908B90120A9
:1002D00000E00020044622460121054800F01BF9F9
:1002E0004FF4787000F006F810BD000000080140DF
:1002F000000C0140014908607047000014040140EF
:10030000002123498279002A3AD00A4612680368FC
:100310009A430B461A600A1D126803689A430B1D24
:100320001A60027911440A6803681A430A60184A7D
:100330000832126803689A43154B08331A601A1D75
:10034000126803689A43124B0C331A604279102AE0
:100350000ED11A1F126803681A430D4B08331A6036
:100360001A1D126803681A43094B0C331A600DE01A
:100370000749427911440A6803681A430A6005E094
:10038000027911440A6803689A430A6070470000C2
:100390000004014030B500228B071C0F0F2303FA25
:1003A00004F20B4B8C1053F824309343084C8D10FF
:1003B00044F8253023468C1053F824308C07240F42
:1003C00000FA04F42343024C8D1044F8253030BD6C
:1003D000080001402DE9F0410246002500260020DA
:1003E00000230024002791F803C00CF00F0591F8BA
:1003F00003C00CF0100CBCF1000F03D091F802C048
:100400004CEA050591F800C0BCF1000F31D014682A
:1004100000202BE04FF0010C0CFA00F3B1F800C003
:100420000CEA03069E4220D183004FF00F0C0CFA19
:1004300003F7BC4305FA03FC4CEA040491F803C03B
:10044000BCF1280F06D14FF0010C0CFA00FCC2F8E9
:1004500014C00AE091F803C0BCF1480F05D14FF079
:10046000010C0CFA00FCC2F810C0401C0828D1D3C3
:100470001460B1F800C0BCF1FF0F34DD54680020F7
:100480002EE000F1080C4FF0010808FA0CF3B1F867
:1004900000C00CEA03069E4221D183004FF00F0CEE
:1004A0000CFA03F7BC4305FA03FC4CEA040491F888
:1004B00003C0BCF1280F05D100F1080C08FA0CF8B4
:1004C000C2F8148091F803C0BCF1480F07D100F1C5
:1004D000080C4FF0010808FA0CF8C2F81080401C14
:1004E0000828CED35460BDE8F0810246002093680E
:1004F0000B400BB1012000E00020704702460020B5
:10050000D3680B400BB1012000E00020704741612F
:100510007047016170470AB1016100E041617047B5
:1005200000BFFEE70EB50121084600F0B1F80F212B
:100530000020FFF72FFF4FF4C260019001208DF8DB
:100540000A0000208DF808000C208DF8090001A891
:10055000FFF7D6FE17208DF8000001208DF803006C
:100560008DF801008DF80200684600F04DF8282053
:100570008DF8000001208DF803008DF801000220A5
:100580008DF80200684600F03FF80A208DF8000060
:1005900001208DF8030002208DF8010001208DF864
:1005A0000200684600F030F80EBD000008B50121D9
:1005B000042000F06DF848208DF803004FF4C2606D
:1005C000ADF8000069460248FFF704FF08BD0000CF
:1005D0000008014008B50121082000F059F810205A
:1005E0008DF803008320ADF8000003208DF8020091
:1005F00069460248FFF7EEFE08BD0000000C01400E
:1006000000BFFEE77047000070B5002100230F22F5
:10061000C47804B3154C246804F4E064C4F5E064C1
:10062000210AC1F10403CA40447804FA03F1847832
:100630001440214309010E4C0678A155047804F0BA
:100640001F050124AC4005786D11AD0005F1E025D2
:10065000C5F8004109E0047804F01F050124AC400E
:10066000044D0678761145F8264070BD0CED00E08B
:1006700000E400E080E100E002490143024A116029
:10068000704700000000FA050CED00E07047000024
:1006900029B1064A92690243044B9A6104E0034A75
:1006A00092698243014B9A6170470000001002403A
:1006B000704710B500F002F810BD00000CB5002026
:1006C000019000903348006840F480303149086060
:1006D00000BF3048006800F4003000900198401CD2
:1006E0000190009818B90198B0F5A06FF1D1294890
:1006F000006800F4003010B10120009001E00020FB
:1007000000900098012843D12348006840F0100071
:10071000214908600846006820F003000860084688
:10072000006840F0020008601A48406819494860B3
:100730000846406848600846406840F48060486069
:100740000846406820F47C1048600846406840F441
:10075000E81048600846006840F08070086000BFFC
:100760000C48006800F000700028F9D00948406883
:1007700020F00300074948600846406840F0020046
:10078000486000BF0348406800F00C000828F9D119
:100790000CBD000000100240002002407047000025
:1007A00010B51348006840F0010011490860084680
:1007B0004068104908400E494860084600680E49E4
:1007C00008400B4908600846006820F48020086053
:1007D0000846406820F4FE0048604FF41F0088601F
:1007E000FFF767FF4FF000600449086010BD00008C
:1007F000001002400000FFF8FFFFF6FE08ED00E0E9
:1008000000BFFEE7014601EBC1024FF47A735A4381
:100810004FF0E0235A6100229A611A46126942F0B1
:1008200001021A6100BF4FF0E022106900F480322B
:100830001AB900F00102002AF5D100224FF0E0239E
:100840009A611A46126900221A6170474FF0E0203F
:10085000006960F004004FF0E0210861FFF7BAFE84
:10086000FFF7A4FE4FF4A060FFF706FFFFF75AFE64
:100870000FE080210748FFF74AFE4FF4FA70FFF7B8
:10088000C1FF80210348FFF744FE4FF4FA70FFF7E1
:10089000B9FFEEE7000C0140A808000800000020A6
:0808A0006006000028010008B9
:04000005080000ED02
:00000001FF
