:1008870030484422444830007FBFDFEFF7FBFDFECE
:10086700E4FDFCC3ED9FEC9E5015E4FBFA0BBB00C7
:0F087700010AEB643C4A70F50DBD00010C80E4F2
:01088600224F
:10083900C2B6C2B5E4FBFAEFC4131313540124FF83
:1008490092B4EF25E0FFD2B60000C2B60BBB00019F
:0D0859000AEB64084A70E0D2B50000C2B599
:01086600226F
:1008000075807FE4F508F509AF09EF90088F93F53F
:1008100080EF90088793FF1208397F027E0012084C
:1008200067E4FF1208390509E50970020508C39459
:0908300008E508940040D180C7DE
:030000000208975C
:0C089700787FE4F6D8FD758109020800A6
:00000001FF
