:10000300750F0075100075110A7B007A00790812CC
:100013000139AE08AF097C017D001202667C007DC8
:100023000A120266EF2430FBE4FD7F0112050FAED6
:1000330008AF097C017D001202667C007D0A120272
:1000430066ED2430FB7D017F0112050F7B2E7D02BF
:100053007F0112050FAE08AF097C017D0012026615
:100063007E007F0ACFCDCFCECCCE120266EF2430F6
:10007300FB7D037F0112050FAE08AF097C017D00F4
:100083001202667E007F0ACFCDCFCECCCE1202669F
:10009300ED2430FB7D047F0112050FE4FB7D057F1A
:1000A3000112050FAE0AAF0B7C017D001202667CC4
:1000B300007D0A120266EF2430FBE4FD7F02120585
:1000C3000FAE0AAF0B7C017D001202667C007D0A35
:1000D300120266ED2430FB7D017F0212050F7B2E99
:1000E3007D027F0212050FAE0AAF0B7C017D001269
:1000F30002667E007F0ACFCDCFCECCCE120266EF52
:100103002430FB7D037F0212050FAE0AAF0B7C0187
:100113007D001202667E007F0ACFCDCFCECCCE12F9
:100123000266ED2430FB7D047F0212050F7B257DE3
:06013300057F0202050F2A
:0805580012049712000380FB5E
:08056000100609080809060055
:1004D100E4FDFCC3ED9FEC9E5015E4FBFA0BBB0061
:0F04E100010AEB640A4A70F50DBD00010C80E4BE
:0104F00022E9
:10052A008F80C2A6C2A5D2A7C2A77F017E000204FD
:01053A00D1EF
:10053B008F80D2A6C2A5D2A7C2A77F017E000204DC
:01054B00D1DE
:100497007F3812052A7F967E001204D17F38120515
:1004A7002A7F0C12052A7F0612052A7F0112052AC8
:1004B7007FC87E001204D17BFF7A057960750D0035
:0A04C700750E017D087C0002033B66
:02050F008B0C53
:10051100EF64017006ED2480F98004ED24C0F9AF89
:090521000112052AAF0C02053B92
:0A033B008B088A09890A8C0B8D0CCF
:10034500751100751201D3E512950EE511950D4055
:1003550003020415E5126401451170057F4012057D
:100365002AE5126402451170057F4812052AE51237
:100375006403451170057F5012052AE51264044592
:100385001170057F5812052AE5126405451170059F
:100395007F6012052AE5126406451170057F681213
:1003A500052AE5126407451170057F7012052AE5D7
:1003B500126408451170057F7812052AE4F50FF5DA
:1003C50010C3E510950CE50F950B5036E51224FF8B
:1003D500FFE51134FFFEEF7803C333CE33CED8F9F2
:1003E500AB08250AF9E5093EFAE92510F9EA350FC2
:1003F500FA12024DFF12053B0510E51070C3050FFB
:1004050080BF0512E512600302034B051102034B81
:0104150022C4
:1004F100EF1FAA0670011E4A6013E4FCFDC3ED94D0
:0D0501007BEC940050EA0DBD00010C80F071
:01050E0022CA
:10045700D2B700000000000000000000C2B77F1400
:100467007E001204F1D2B700000000000000000077
:100477000000000000000000000000000000000075
:100487000000000000000000000000000000002243
:10041600E4FDEDC3940874809480503430B7FD0039
:1004260000000000000000000000000000000000C6
:1004360000000000000000000000000000E4FE30A4
:10044600B7010E20B7FDEF25E0FFEE42070D80C293
:010456002283
:060139008B0C8A0D890EFB
:10013F00120457D2B730B70302024CE4FF20B70DB9
:10014F00EFC394647480948050030F80F0E4FF3009
:10015F00B70DEFC394647480948050030F80F01236
:10016F0004168F16120416A907120416AC071204F0
:10017F0016AB071204168F17C2B70000000000005D
:10018F000000000000000000000000000000000060
:10019F000000000000000000000000000000000050
:1001AF00000000000000000000000000D2B7E9FFCF
:1001BF00E5162FFFE433FEEC7583002FFFE5833E3A
:1001CF00FEEB2FFFE5833EFEE517B5070EE583B582
:1001DF00060985161289138C148B15AB0CAA0DA961
:1001EF000EE48514F01202C7AB0CAA0DA90E120271
:1001FF009C75F0001202C7AB0CAA0DA90E12029C3F
:10020F00FFEF4515FFE5F08FF01202C7AB0FAA10F5
:10021F00A911E48512F01202C7AB0FAA10A911128F
:10022F00029C75F0001202C7AB0FAA10A91112029F
:0D023F009CFFEF4513FFE5F08FF01202C7A2
:01024C00228F
:0300000002054CAA
:0C054C00787FE4F6D8FD75811702055891
:10024D00BB010689828A83E0225002E722BBFE02AF
:09025D00E32289828A83E49322E2
:10026600C2D5EC30E709B2D5E4C39DFDE49CFCEEB3
:1002760030E715B2D5E4C39FFFE49EFE1202E6C343
:10028600E49DFDE49CFC80031202E630D507C3E43E
:060296009FFFE49EFE2222
:10029C00BB010A89828A83E0F5F0A3E0225006872D
:1002AC00F009E71922BBFE07E3F5F009E3192289EF
:0B02BC00828A83E493F5F07401932222
:1002C700BB010A89828A83F0E5F0A3F0225006F782
:0F02D70009A7F01922BBFE06F3E5F009F319227F
:1002E600BC000BBE0029EF8DF084FFADF022E4CCFC
:1002F600F875F008EF2FFFEE33FEEC33FCEE9DECC5
:10030600984005FCEE9DFE0FD5F0E9E4CEFD22ED0A
:10031600F8F5F0EE8420D21CFEADF075F008EF2F54
:10032600FFED33FD4007985006D5F0F222C398FD45
:050336000FD5F0EA22E2
:00000001FF
