:020000040800F2
:100000007006002089010008E3040008A10400082C
:10001000DF04000881020008310C00080000000025
:100020000000000000000000000000006D0A000851
:10003000850200080000000075050008AD0B0008EF
:10004000A3010008A3010008A30100083908000863
:10005000A3010008A3010008A3010008A3010008F0
:10006000A3010008A3010008A3010008A3010008E0
:10007000A3010008A3010008A3010008A3010008D0
:10008000A3010008A3010008A3010008A3010008C0
:10009000A3010008A3010008A3010008A3010008B0
:1000A000A3010008A3010008A3010008A3010008A0
:1000B000A3010008A3010008A3010008A301000890
:1000C000A3010008A3010008A3010008A301000880
:1000D000A3010008A3010008A3010008A301000870
:1000E000A3010008A3010008A301000800F002F822
:1000F00000F03AF80AA090E8000C82448344AAF188
:100100000107DA4501D100F02FF8AFF2090EBAE885
:100110000F0013F0010F18BFFB1A43F0010318473B
:10012000D80E0000F80E0000103A24BF78C878C13D
:10013000FAD8520724BF30C830C144BF04680C60ED
:10014000704700000023002400250026103A28BF35
:1001500078C1FBD8520728BF30C148BF0B60704739
:100160001FB51FBD10B510BD00F033F81146FFF7E5
:10017000F7FF00F01FFF00F051F803B4FFF7F2FFA4
:1001800003BC00F057FD00000948804709480047BC
:10019000FEE7FEE7FEE7FEE7FEE7FEE7FEE7FEE737
:1001A000FEE7FEE704480549054A064B7047000094
:1001B000D10B0008ED000008700000207006002040
:1001C000700200207002002070477047704770472F
:1001D0007047754600F02CF8AE4605006946534658
:1001E00020F00700854618B020B5FFF7DBFFBDE81B
:1001F00020404FF000064FF000074FF000084FF08E
:10020000000B21F00701AC46ACE8C009ACE8C0091E
:10021000ACE8C009ACE8C0098D46704710B504468B
:10022000AFF300802046BDE81040FFF7A6BF0000F6
:10023000004870471000002010B5012000F0BCF904
:10024000002000F0B9F910BD08B50146002000906B
:10025000034800900098084400900098008808BD6A
:10026000006C004008B500220092044A0092009AF7
:1002700002440092009A116008BD0000006C00402A
:1002800000BFFEE77047000008B50121082000F01C
:1002900083F910208DF803004FF6FF70ADF80000D1
:1002A00003208DF802006946044800F011F84FF66B
:1002B000FF7002490C31086008BD0000000C0140CD
:1002C000C268D2B2C260C26842EA0122C26070470C
:1002D0002DE9F041024600250026002000230024DD
:1002E000002791F803C00CF00F0591F803C00CF043
:1002F000100CBCF1000F03D091F802C04CEA0505C8
:1003000091F800C0BCF1000F31D0146800202BE040
:100310004FF0010C0CFA00F3B1F800C00CEA030630
:100320009E4220D183004FF00F0C0CFA03F7BC4320
:1003300005FA03FC4CEA040491F803C0BCF1280F51
:1003400006D14FF0010C0CFA00FCC2F814C00AE010
:1003500091F803C0BCF1480F05D14FF0010C0CFA25
:1003600000FCC2F810C0401C0828D1D31460B1F8BA
:1003700000C0BCF1FF0F34DD546800202EE000F116
:10038000080C4FF0010808FA0CF3B1F800C00CEAB1
:1003900003069E4221D183004FF00F0C0CFA03F7A5
:1003A000BC4305FA03FC4CEA040491F803C0BCF119
:1003B000280F05D100F1080C08FA0CF8C2F81480D7
:1003C00091F803C0BCF1480F07D100F1080C4FF0C1
:1003D000010808FA0CF8C2F81080401C0828CED397
:1003E0005460BDE8F081000008B50121042000F050
:1003F000D3F84FF47060ADF8000048208DF803008A
:1004000069460248FFF764FF08BD0000000801408C
:10041000F0B50A46002300240021002500F0004624
:10042000B6F1004F02D11D4EF16901E01B4E71681B
:10043000C0F3034583B200F44016B6F5401F08D15F
:1004400021F07061154E766826F07066134F7E605D
:1004500012E000F48016B6F5801F06D1032606FAD6
:1004600005F4A14341F0706106E0460D360103FA40
:1004700006F6B14341F0706122B1460D360103FA30
:1004800006F6314300F00046B6F1004F02D1034EAC
:10049000F16101E0014E7160F0BD0000000001401B
:1004A00000BFFEE70146CA1701EB92729210A1EB62
:1004B000820292B9642091FBF0F200FB121050B955
:1004C0004FF4C87091FBF0F200FB121008B9012044
:1004D00070470020FCE70120FAE70020F8E700BFA2
:1004E000FEE7704770B5002100230F22C47804B3E3
:1004F000154C246804F4E064C4F5E064210AC1F1F9
:100500000403CA40447804FA03F184781440214378
:1005100009010E4C0678A155047804F01F0501244A
:10052000AC4005786D11AD0005F1E025C5F800413E
:1005300009E0047804F01F050124AC40044D06785E
:10054000761145F8264070BD0CED00E000E400E0B7
:1005500080E100E002490143024A11607047000057
:100560000000FA050CED00E0014908627047000048
:1005700000000E427047000029B1064AD2690243CA
:10058000044BDA6104E0034AD2698243014BDA6129
:10059000704700000010024029B1064A92690243E8
:1005A000044B9A6104E0034A92698243014B9A61C9
:1005B00070470000001002400149086070470000C9
:1005C0004004424210B501460022002300204A1197
:1005D000012A02D1094C236806E0022A02D1074C05
:1005E000236A01E0054C636A01F01F020124944074
:1005F0001C400CB1012000E0002010BD00100240A2
:1006000000210B4A11700A4A203A82F82010012872
:1006100002D0042808D103E00121054A117004E04A
:100620000521034A117000E000BF00BF70470000C1
:100630002010024001490860704700003C0442421B
:100640000249096A0143014A1162704700100240E1
:10065000024909888143014A1180704704280040FB
:100660000348008840F010000149088070470000EE
:1006700004280040034800884FF6EF710840014904
:10068000088070470428004070B50026002400252B
:1006900000F07AF806463848B6FBF0F43748008890
:1006A000A0423CD035490C8040F2B27510E028469B
:1006B000FFF7F8FE40B1B4F5B77F02D3A4F5B774E5
:1006C00004E0681C85B206E0A4F26D14681C85B2D3
:1006D000B4F5B67FEBD800BF29488580002516E029
:1006E00027498888FFF7DEFE30B1012D04D11D2C8B
:1006F00001D31D3C09E00CE02248405DA04203D834
:100700002048405D241A00E003E0681C85B21C2CE0
:10071000E6D200BF681C1A498871601CC87116486F
:10072000B6FBF0F100FB11644FF46160B4FBF0F034
:10073000134908704FF46160B4FBF0F100FB114005
:100740003C21B0FBF1F00E4948704FF46160B4FBFE
:10075000F0F100FB11403C21B0FBF1F201FB120073
:10076000074988700B46DA799979988800F028F85B
:1007700003490872002070BD805101000200002072
:1007800004000020EC0F0008002103480188001F2E
:10079000008841EA004070471C28004001460020C4
:1007A000064A12880A40D0B2044A121F12880A4030
:1007B00012B108B1012000E0002070470428004079
:1007C000F0B503460C461546642093FBF0F0C6B224
:1007D000642093FBF0F700FB1730C1B2132E02DD4B
:1007E00001F16400C1B20846CF1701EB977701EB26
:1007F000A707BAB2072092FBF0F700FB172082B2DE
:100800005719601EDFF82CC01CF80000384482B273
:10081000CF1701EB9777BF10A1EB87071FB9032C08
:1008200001DA501E82B2072092FBF0F700FB17207E
:10083000C0B2F0BDE00F000810B50120FFF7AEFF19
:10084000012806D1FFF720FF00F0F4F80120FFF7A0
:10085000FFFE10BD29B1064A12880243044B1A80DC
:1008600004E0034A12888243014B1A80704700005B
:10087000002800401CB501214FF0C050FFF77CFE5E
:100880000120FFF771FE0420FFF7DEFC41F2111199
:10089000884230D0FFF7D0FC0120FFF7B1FE00BF47
:1008A0004120FFF78FFE0028FAD04FF48070FFF749
:1008B000C7FE0120FFF7BEFE00F0C6F800F0BAF850
:1008C00001210846FFF7C6FF00F0B4F847F6FF70B5
:1008D00000F0A0F80020252110230F22CDE9001000
:1008E000052140F2E37000F023F841F211110420D9
:1008F000FFF7B8FC07E000F0A7F800F09BF8012133
:100900000846FFF7A7FF00F003F8FFF7BDFE1CBD88
:1009100008B503208DF8000001208DF803000020A9
:100920008DF801008DF802006846FFF7DBFD08BD79
:100930002DE9F05F06460F4690469946DDE90AAB81
:10094000002440F2B270864203DB40F63300864258
:1009500002DD0120BDE8F09F40F2B2750AE02846B2
:10096000FFF7A0FD10B12048044401E01F480444F3
:10097000681C85B2B542F2DB781EC7B2002510E0D4
:100980001B48405D40F2A321484304EBC0143046AD
:10099000FFF788FD18B1012D01D116480444681CE9
:1009A00085B2BD42ECDBA8F1010040F2A32148432F
:1009B00004EBC014C9EB4910C0EB092004EB001490
:1009C000CAEB0A1004EB80045C4401214FF0C050D4
:1009D000FFF7D2FD0120FFF7C7FD00F02BF82046FE
:1009E00000F00AF80020B5E70085E2018033E1015C
:1009F000EC0F00088051010000B50246FFF730FE01
:100A0000100C03490880091D0A80FFF733FE00BD62
:100A10001828004000B50246FFF722FEC2F303404B
:100A200003490880091D0A80FFF724FE00BD00006D
:100A30000828004000BF0348008800F0200000287C
:100A4000F9D0704704280040074800884FF6F77136
:100A500008400549088000BF0348008800F00800EE
:100A60000028F9D07047000004280040704710B5F6
:100A700000F002F810BD00000CB5002001900090BD
:100A80003348006840F480303149086000BF304886
:100A9000006800F4003000900198401C019000981C
:100AA00018B90198B0F5A06FF1D12948006800F499
:100AB000003010B10120009001E00020009000986B
:100AC000012843D12348006840F010002149086004
:100AD0000846006820F0030008600846006840F0FF
:100AE000020008601A484068194948600846406892
:100AF00048600846406840F48060486008464068A6
:100B000020F47C1048600846406840F4E8104860D3
:100B10000846006840F08070086000BF0C4800681C
:100B200000F000700028F9D00948406820F0030068
:100B3000074948600846406840F00200486000BF2E
:100B40000348406800F00C000828F9D10CBD0000F3
:100B5000001002400020024030B50146B1F1807F14
:100B600001D3012030BD21F07F40401E4FF0E02234
:100B7000506150170F22002807DA13071D0E094B8A
:100B800000F00F04241F1D5503E013071C0E064B35
:100B90001C5400BF00204FF0E0229061072010613C
:100BA0000020DFE718ED00E000E400E070470000FF
:100BB00010B54FF4A060FFF7CDFC01210846FFF708
:100BC000EBFC01210148FFF723FC10BD00023000BF
:100BD00010B51348006840F001001149086008464C
:100BE0004068104908400E494860084600680E49B0
:100BF00008400B4908600846006820F4802008601F
:100C00000846406820F4FE0048604FF41F008860EA
:100C1000FFF72DFF4FF000600449086010BD000091
:100C2000001002400000FFF8FFFFF6FE08ED00E0B4
:100C300000BFFEE7014600BF7047000070B50446E4
:100C400000250D48FFF788FF00BF09E000BF4FF007
:100C5000E020006900F480300028F8D0681C85B2DC
:100C6000A542F3D34FF0E020006920F001004FF0DF
:100C7000E021086170BD00004019010070B500243A
:100C8000BCE0082C1AD2DFE804F0041A2F3F566BA0
:100C90007B9200205B4908605B49C1F88C01C1F878
:100CA00088015A4880780A2190FBF1F201FB12007A
:100CB00057490D5C29465748FFF702FB94E0002096
:100CC000504908605049C1F88C010120C1F88801E1
:100CD0004E4880780A2190FBF1F04D490D5C294681
:100CE0004C48FFF7EDFA7FE00020464908600120FC
:100CF0004549C1F88C01002042490839086040216B
:100D00004448FFF7DDFA6FE000203E49086001200B
:100D10003D49C1F88C01C1F888013C4840780A215E
:100D200090FBF1F201FB120039490D5C294639486C
:100D3000FFF7C6FA58E00120324908600020324926
:100D4000C1F88C01C1F88801304840780A2190FB35
:100D5000F1F02F490D5C29462E48FFF7B1FA43E028
:100D600001202849086000202749C1F88C01012092
:100D700024490839086040212648FFF7A1FA33E0EA
:100D80000120204908602049C1F88C010020C1F8E9
:100D900088011E4800780A2190FBF1F201FB120045
:100DA0001B490D5C29461B48FFF78AFA1CE001200D
:100DB000144908601449C1F88C01C1F8880113482E
:100DC00000780A280BDB114800780A2190FBF1F02B
:100DD0000F490D5C29460F48FFF772FA03E0002126
:100DE0000C48FFF76DFA00BF00BF0120FFF726FF98
:100DF00000210848FFF764FA601CC4B2082CFFF613
:100E000040AF70BD9081214200802142040000204B
:100E1000D00F0008000C01401CB561480068002894
:100E200033D16048007800282FD15F480078401CFB
:100E30005D4908705A48006838BB084600780128A8
:100E400023DD012057490870002057490870574892
:100E50000078401C5549087008460078182801D1D0
:100E6000002008705248006880F001005049086076
:100E70004E4880784D4949784C4CCDE90010237894
:100E8000E279A179A088FFF753FD4548001D00686D
:100E9000002833D14348007880BB43480078401C89
:100EA000414908703E48001D006838BB084600787C
:100EB000012823DD01203B49087000203A490870D1
:100EC0003A484078401C39494870084640783C28E8
:100ED00001D1002048703648006880F00100344994
:100EE00008603248807831494978304CCDE90010AB
:100EF0002378E279A179A088FFF71AFD2848001F1E
:100F0000006898BB2748007880BB27480078401CC1
:100F1000254908702248001F006838BB0846007841
:100F2000012823DD01201F49087000201E49087098
:100F30001E488078401C1D498870084680783C28EF
:100F400001D1002088701A48006880F0010018491B
:100F500008601648807815494978144CCDE900108E
:100F60002378E279A179A088FFF7E2FC0C480068B9
:100F7000012813D10A48001D006801280ED1084835
:100F8000001F0068012809D10548083000680128C1
:100F900004D1002003490870034908701CBD0000FB
:100FA0002401214200000020010000200400002054
:100FB0000C0C0140FFF7FCFDFFF75CFCFFF764F948
:100FC000FFF712FA03E0FFF727FFFFF757FEFAE7F4
:100FD0003F065B4F666D7D077F6F777C395E797169
:100FE0000003030601040602050003051F1C1F1E63
:100FF0001F1E1F1F1E1F1E1F1810000800000020AC
:1010000004000000280100081C1000080400002053
:0C1010006C060000440100080000000015
:04000005080000ED02
:00000001FF
