:1000790064A3C1A26284618161A4A191A18164A3E5
:10008900C1D2D2D2A2C4A1C1A1C1D2D2D2A2C4C268
:1000990062C262A2A2849494928191A2C2D4E4A47D
:1000A900E4A2E2A2E2A2A2849494928191A2C2D88B
:1000B900FFFFFCEDFD43FD6AFDB3FDF3FE2DFE4799
:0C00C900FE76FEA1FEC7FED9FEF9FF1670
:03000B0002011DD2
:09011D0085088C85098AB295322F
:1000D500D3EF9400EE940040147D387C4AED1D70FA
:0D00E500011CED4C70F7EF1F70E61E80E36C
:0100F20022EB
:1000F300D3EF9400EE940040147D707C00ED1D70EE
:0D010300011CED4C70F7EF1F70E61E80E34D
:0101100022CC
:10000E00E4FB75890175A882EB90007993750A005F
:10001E00F50BF4450A604FE50AC4F854F0C8E50B39
:10002E00C4540F48FF602325E024B9F582E4340060
:10003E00F583E493F508EF25E024BAF582E4340065
:10004E00F583E493F509D28C8004C28CD2957E00A0
:10005E00E50B540FFF1200D5C28CD2957F057E00A2
:0A006E001200F30B80A2C28CD295A1
:010078002265
:03000000020111E9
:0C011100787FE4F6D8FD75810B02000E2B
:00000001FF
