:06000300010900010801E3
:08014600E50825E0F508AF0310
:10014E00EFD39400400B7E647D64DDFEDEFA1F80EB
:01015E00EFB1
:01015F00227D
:03000B0002009A56
:0D009A00C0E0C0F0C0D075D000C006C007A7
:1000A700AF08758CFF758A98E509C39464500405F9
:1000B700098003750900EFF4F5A0E50975F00A84D6
:1000C700E5F0700EEF25E0FEEFC3134E4207EFF4A5
:1000D700F5A0E509701CEF25E0FEEFC3134EFEEF18
:1000E70025E025E04EFEEF1313543F4E4207EFF491
:0200F700F5A072
:0B00F900D007D006D0D0D0F0D0E0320D
:10010400D2A9758901D2AF758CD8758AECD28C7B53
:10011400027C07120146DCFB7C07E508C3131201CD
:100124004ADCF7DBECE4FBEBC3940250E27C0712FD
:100134000146DCFB7C07E508C31312014ADCF70B1C
:0201440080E554
:0300000002000EED
:0C000E00787FE4F6D8FD758109020055EA
:10001A00020104E493A3F8E493A34003F68001F2F7
:10002A0008DFF48029E493A3F85407240CC8C333E7
:10003A00C4540F4420C8834004F456800146F6DFB6
:10004A00E4800B0102040810204080900003E47E43
:10005A00019360BCA3FF543F30E509541FFEE493AB
:10006A00A360010ECF54C025E060A840B8E493A372
:10007A00FAE493A3F8E493A3C8C582C8CAC583CA9D
:10008A00F0A3C8C582C8CAC583CADFE9DEE780BE55
:0100090000F6
:00000001FF
