:0908B3003F065B4F666D7D077F77
:10088700E4FDFCC3ED9FEC9E5015E4FBFA0BBB00A7
:0F089700010AEB643C4A70F50DBD00010C80E4D2
:0108A600222F
:10080000750800750901E508705CE50914B4080075
:10081000505490082075F003A4C58325F0C5837358
:1008200002083802083C0208400208440208480254
:100830000850020858020860C2A4800EC2A48012A8
:10084000C2A48016C2A4801AD2A4C2A3C2A28016D7
:10085000D2A4C2A3D2A2800ED2A4D2A3C2A28006E6
:10086000D2A4D2A3D2A2E5099008B393F5807F0168
:100870007E001208870509E50970020508C394097E
:06088000E5089400408031
:01088600224F
:0508BC0012080080FBA2
:030000000208A74C
:0C08A700787FE4F6D8FD7581090208BCDA
:00000001FF
