:03001200010800E2
:040003007F307E7557
:0B000700EF1FAC0670011E4C70F622CB
:1000B200C29FD29ED29CD2AC758920758DF3758B6E
:1000C200F3D28ED2AF758780E508B4030663A0FF32
:1000D200120003E508B4010C75A0FE12000375A01E
:1000E200FF120003E508B402DFC2957F647E0012AE
:0D00F2000007D2957F647E0012000780CBCE
:030023000200FFD9
:0900FF00C0E0C0D075D000C007BC
:10010800309822C298AF99BF31057508018013BF96
:100118003205750802800BBF330575080380037527
:0A0128000800759921309902C29970
:07013200D007D0D0D0E0326D
:03000000020026D5
:0C002600787FE4F6D8FD75810802006DBB
:100032000200B2E493A3F8E493A34003F68001F232
:1000420008DFF48029E493A3F85407240CC8C333CF
:10005200C4540F4420C8834004F456800146F6DF9E
:10006200E4800B0102040810204080900012E47E1C
:10007200019360BCA3FF543F30E509541FFEE49393
:10008200A360010ECF54C025E060A840B8E493A35A
:10009200FAE493A3F8E493A3C8C582C8CAC583CA85
:1000A200F0A3C8C582C8CAC583CADFE9DEE780BE3D
:0100150000EA
:00000001FF
