:0A060A00020A0000C180020800008F
:1005D300438911E4F58CF58A758D3C758BB0D2ABEC
:0505E300D28ED2AF2210
:1003DE00C3E50B9494E50A94117F8450671205E8E7
:1003EE00AE0AAF0B7C037DE812037BEF2430FF12C5
:1003FE0005F9AE0AAF0B7C007D6412037B7C007D99
:10040E000A12037BED2430FF1205F9AE0AAF0B7C06
:10041E00007D0A12037B7C007D0A12037BED2430E3
:10042E00FF1205F97F2E1205F9AE0AAF0B7C007D87
:10043E000A12037BED2430FF1205F97F431205F9F2
:10044E007F4D80231205E87F201205F97F451205A6
:10045E00F97F521205F97F521205F97F4F1205F9F5
:0B046E007F521205F97F201205F922D1
:100003001205D312053D1203DE3000FAC2001205B9
:07001300058E0A8F0B80EF40
:03001B0002058457
:02058400C0E0D5
:10058600758D3C758BB00509E50970020508640F89
:0A05960045087006F508F509D200CB
:0305A000D0E03276
:10056400E4FDFCC3ED9FEC9E5015E4FBFA0BBB00CD
:0F057400010AEB640A4A70F50DBD00010C80E42A
:010583002255
:1005E8008F80C2A6C2A5D2A7C2A77F017E0002053E
:0105F800649E
:1005F9008F80D2A6C2A5D2A7C2A77F017E0002051D
:01060900648C
:10053D007F381205E87F967E001205647F3812051C
:10054D00E87F0C1205E87F061205E87F011205E829
:07055D007FC87E0002056467
:1005BD00C2A0D2A00000000000000000000000005A
:0605CD00000000C2A022A4
:1005A300E4FFFEF58CF58A30A1FDD28C20A1FDC2BB
:0905B3008CAF8CEFFEAD8AEDFF68
:0105BC00221C
:100505001205BD1205A3AD07AC06E41202C17BE5D9
:100515007AD1790D783D120116E4FBFAF97840128B
:10052500021FE4FBFA79207841120116E4FBFAF97F
:08053500783F1200250202FAD2
:10001E00020366E86480F8E933E83360110460F0A7
:10002E00ED33EC337009E8FCE9FDEAFEEBFF220448
:10003E0060DED3EB9FEA9EE99DE8C2E78CF0C2F743
:10004E0095F0400CE8CCF8E9CDF9EACEFAEBCFFB0F
:10005E0012033185D0F05804700320D5B3E8047034
:10006E00075002B2D502037092D5EC0460F7E4CCCF
:10007E00C0E0C398F8603B94186008400DD0E0FBD8
:10008E00020348E4FBFAC9FC8028E830E406E4C920
:10009E00FBE4CAFCE830E305E4C9CACBFCE854072C
:1000AE006010F8C3E913F9EA13FAEB13FBEC13FC37
:1000BE00D8F130F52FC3E49CFCEF9BFFEE9AFEEDDA
:1000CE0099FDD0E0FBEF4E4D4C701222DB03020384
:1000DE006DEC2CFCEF33FFEE33FEED33FDED30E730
:1000EE00EB020348EF2BFFEE3AFEED39FDD0E0FBBD
:1000FE0050130BBB0003020370ED13FDEE13FEEF66
:08010E0013FFEC13FC0203488F
:10011600EC4D6011E8497017ED33EC3304600DE4E3
:10012600FCFFFEFD22E933E8330470F80203661291
:10013600033158046009E4CC248150062850090292
:10014600037028400302036DC0E0EB4A7044B98097
:1001560006D0E0FB02035CEF4E701CBD8008EBFF8F
:10016600EAFEE9FD80EBE98DF0A4FEE5F00201FF71
:10017600E9CDF9EAFEEBFFEF89F0A4FCE5F0CE89C4
:10018600F0A42EFFE435F0CD89F0A42DFEE435F081
:100196008067EF4E7005BD80D780C3EF8BF0A4ACAF
:1001A600F0EE8BF0A42CFCE435F0F8EF8AF0A42CEA
:1001B600E5F038FCE433CB8DF0A42CFCE5F03BF8FD
:1001C600EE8AF0A42CFCE5F038F8E433CF89F0A4ED
:1001D6002CFCE5F038CF3400CE89F0A42FFFE5F0F3
:1001E6003EFEE433C98DF0A42EFEE5F039CD8AF04B
:1001F600A42FFFE5F03EFEE43DFD33D0E0FB5007C3
:100206000BBB000F020370EC2CFCEF33FFEE33FE4A
:06021600ED33FD02034878
:10021C00020370EC5D046005E85904700302036688
:10022C00120331580460F6EC4860F2EC7004FDFEE9
:10023C00FF22C860DB2481C85009C39860025006B5
:10024C0002036D9850CAF582E9294B4A7005AB82BE
:10025C0002035C75F0007C1A7880C3EF9BEE9AED7C
:10026C0099400DC3EF9BFFEE9AFEED99FDE842F02D
:10027C00DC23ACF0D0E0FFD0E0FED0E0FDAB822080
:10028C00E7101BEB60BAEC2CFCEF33FFEE33FEED0A
:10029C0033FD020348E803F830E705C0F075F000C1
:1002AC00EF2FFFEE33FEED33FD40B830E7C280AAEE
:1002BC0075F020800E75F010800575F0087D007EBD
:1002CC00007F003392D530D5031203D0EC334010AD
:1002DC00EF33FFEE33FEED33FDEC33FCD5F0ED22C6
:0E02EC00E5F0247EA2D513CC92E7CDCEFF2202
:1002FA00EDD2E7CD33EC3392D524814006E4FFFEFC
:10030A00FDFC22FCE4CFCECDCC24E0501174FF805A
:10031A00EDC3CC13CCCD13CDCE13CECF13CF0470F7
:07032A00F030D5DE0203D024
:10033100E9D2E7C933E833F892D5EDD2E7CD33EC12
:0703410033FC5002B2D5228B
:10034800EC30E7100FBF000C0EBE00080DBD000416
:100358000BEB6014A2D5EB13FCED92E7FD2274FFC2
:10036800FCFDFEFF22E480F8A2D574FF13FC7D801B
:03037800E480EF2F
:030000000204797E
:0C047900787FE4F6D8FD7581200204C0F5
:10037B00BC000BBE0029EF8DF084FFADF022E4CC66
:10038B00F875F008EF2FFFEE33FEEC33FCEE9DEC2F
:10039B00984005FCEE9DFE0FD5F0E9E4CEFD22ED75
:1003AB00F8F5F0EE8420D21CFEADF075F008EF2FBF
:1003BB00FFED33FD4007985006D5F0F222C398FDB0
:0503CB000FD5F0EA224D
:0E03D000C3E49FFFE49EFEE49DFDE49CFC223E
:10048500020003E493A3F8E493A34003F68001F28A
:1004950008DFF48029E493A3F85407240CC8C33378
:1004A500C4540F4420C8834004F456800146F6DF47
:1004B500E4800B010204081020408090060AE47EC7
:1004C500019360BCA3FF543F30E509541FFEE4933C
:1004D500A360010ECF54C025E060A840B8E493A303
:1004E500FAE493A3F8E493A3C8C582C8CAC583CA2E
:1004F500F0A3C8C582C8CAC583CADFE9DEE780BEE6
:0106140000E5
:00000001FF
