:100A71000000000000000000000000181800000045
:100A81000006060000606000030300181800C0C0E3
:100A91000066660000666600C3C300181800C3C381
:080AA10000DBDB0000DBDB00E1
:0D0AE100020B0000C1000108000209000026
:0B0AEF00EF1FAC0670011E4C70F622D9
:0A0AA900F582E43583F583E493FF42
:100AB300E4FEC2B5C2B6EFC4131313540124FF926C
:0D0AC300B4EF25E0FFD2B60EBE08E9D2B5B3
:010AD0002203
:10098300E4F512751306AF0CAE0B120A25AF13155F
:1009930013EF604B7580FEE4F5121209E37C007DD2
:1009A3000512088CED75F008A42479F582E4340A65
:1009B300F583E5822512120AA97F647E00120AEFED
:1009C300E4FF120AB3E58025E04401F5800512E552
:0F09D30012C3940840C47FA07E0F120AEF80AEBB
:0109E20022F2
:10091700E4F51120002720B2247FDC7E05120AEFC0
:1009270020B21AD200AF0CAE0B120A251209E37CD3
:10093700007D0612088CED04F50812098330B20217
:10094700C2007580FEE4F511E50875F008A424716E
:10095700F582E4340AF583E5822511120AA97F326C
:100967007E00120AEFE4FF120AB3E58025E0440196
:0B097700F5800511E511C3940840CD88
:010982002252
:100AD100758902758CC8758AC8D2AFD2A9D28C2209
:080AFA00120AD112091780FB5A
:03000B00020A30B6
:0B0A3000C0E0C0D075D000C006C007B9
:100A3B00050AE50A70020509FFAE09BE011FBFF4E6
:100A4B001C750900750A00050CE50C7002050BB44A
:0D0A5B00300BE50BB47506750B00750C0033
:090A6800D007D006D0D0D0E03256
:03000000020800F3
:0C080000787FE4F6D8FD758120020847DF
:10088C00C2D5EC30E709B2D5E4C39DFDE49CFCEE87
:10089C0030E715B2D5E4C39FFFE49EFE1208C2C335
:1008AC00E49DFDE49CFC80031208C230D507C3E430
:0608BC009FFFE49EFE22F6
:1009E300AC0DAD0EAE0FAF107810EC4D4E4F700442
:1009F3007CA57DA5C3EC13FCED13FDEE13FEEF13F5
:100A0300FF5010EC64CCFCED644CFDEE644EFEEF45
:100A130064CEFFD8DF8C0D8D0E8E0F8F10EE547FBA
:0D0A2300FE228E0D8F0E74A5F50FF510222A
:10080C00020AFAE493A3F8E493A34003F68001F2FE
:10081C0008DFF48029E493A3F85407240CC8C333ED
:10082C00C4540F4420C8834004F456800146F6DFBC
:10083C00E4800B0102040810204080900AE1E47E61
:10084C00019360BCA3FF543F30E509541FFEE493B1
:10085C00A360010ECF54C025E060A840B8E493A378
:10086C00FAE493A3F8E493A3C8C582C8CAC583CAA3
:10087C00F0A3C8C582C8CAC583CADFE9DEE780BE5B
:010AEE000007
:1008C200BC000BBE0029EF8DF084FFADF022E4CC1A
:1008D200F875F008EF2FFFEE33FEEC33FCEE9DECE3
:1008E200984005FCEE9DFE0FD5F0E9E4CEFD22ED29
:1008F200F8F5F0EE8420D21CFEADF075F008EF2F73
:10090200FFED33FD4007985006D5F0F222C398FD63
:050912000FD5F0EA2200
:00000001FF
