:0A02B2003F065B4F666D7D077F6F0E
:0C028F0002090000020B0000020D00003C
:0B029C00EF1FAC0670011E4C70F62234
:10027F00758901D2AFD2A9C28C758CEC758A7822A0
:0902BC00D2A8D2AAD288D28A226B
:10001600E4FBFAEA60030200D9EB24FE60311460C7
:100026004914605214606A1470030200BA24056011
:10003600030200D9C2A4C2A3C2A2AE0DAF0E7C00B9
:100046007D0A12017E74B22DF58274023C807EC256
:10005600A4C2A3D2A2AE0DAF0E7C007D0A12017E11
:1000660074B22FF58274023E8063C2A4D2A3C2A2E8
:10007600AE09AF0A8025C2A4D2A3D2A2AE09AF0AA6
:100086007C007D0A12017E74B22FF58274023E80D6
:100096003CD2A4C2A3C2A2AE0BAF0C7C007D0A1256
:1000A600017E74B22DF58274023CF583E49344809C
:1000B600F580801FD2A4C2A3D2A2AE0BAF0C7C00E7
:1000C6007D0A12017E74B22FF58274023EF583E436
:1000D60093F5807F647E0012029CE4F5800BBB00E2
:0B00E600010AEB64074A6003020019E6
:0100F10022EC
:0B02A70012027F1202BC12001680FB46
:0300030002025B9B
:10025B00C0E0C0D075D000C004C006C0077FD07E00
:10026B000712029C20B202B28CD007D006D004D069
:04027B00D0D0E032CD
:03001300020222C4
:10022200C0E0C0D075D000C004C006C0077FE87E21
:100232000312029C20B317208C14750900750A0062
:10024200750B00750C00750D00750E00C28CD00781
:09025200D006D004D0D0D0E03277
:03000B000201D31C
:1001D300C0E0C0D0758CEC758A780508E508B402D8
:1001E30039750800050EE50E7002050D6464450DB2
:1001F3007028F50DF50E050AE50A70020509643C41
:1002030045097016F509F50A050CE50C7002050B96
:0F0213006464450B7004F50BF50CD0D0D0E032CD
:030000000200F209
:0C00F200787FE4F6D8FD75810E0201391C
:10017E00BC000BBE0029EF8DF084FFADF022E4CC65
:10018E00F875F008EF2FFFEE33FEEC33FCEE9DEC2E
:10019E00984005FCEE9DFE0FD5F0E9E4CEFD22ED74
:1001AE00F8F5F0EE8420D21CFEADF075F008EF2FBE
:1001BE00FFED33FD4007985006D5F0F222C398FDAF
:0501CE000FD5F0EA224C
:1000FE000202A7E493A3F8E493A34003F68001F26F
:10010E0008DFF48029E493A3F85407240CC8C33302
:10011E00C4540F4420C8834004F456800146F6DFD1
:10012E00E4800B010204081020408090028FE47ED0
:10013E00019360BCA3FF543F30E509541FFEE493C6
:10014E00A360010ECF54C025E060A840B8E493A38D
:10015E00FAE493A3F8E493A3C8C582C8CAC583CAB8
:10016E00F0A3C8C582C8CAC583CADFE9DEE780BE70
:01029B000062
:00000001FF
