:020000040800F2
:10000000600600206D010008490500081B04000877
:10001000450500081D020008F90A0008000000005C
:10002000000000000000000000000000550900086A
:100030009902000800000000A9070008950A0008BE
:100040008701000887010008870100088701000870
:100050008701000887010008870100088701000860
:100060008701000887010008870100088701000850
:100070008701000887010008870100088701000840
:100080008701000887010008870100088701000830
:100090008701000887010008870100088701000820
:1000A0008701000887010008870100088701000810
:1000B0008701000887010008870100088701000800
:1000C00087010008870100088701000887010008F0
:1000D00087010008870100088701000887010008E0
:1000E00087010008870100088701000800F002F876
:1000F00000F02CF80AA090E8000C82448344AAF196
:100100000107DA4501D100F021F8AFF2090EBAE893
:100110000F0013F0010F18BFFB1A43F0010318473B
:10012000DC130000EC13000000230024002500264F
:10013000103A28BF78C1FBD8520728BF30C148BF4A
:100140000B6070471FB51FBD10B510BD00F033F830
:100150001146FFF7F7FF00F03FFD00F051F803B440
:10016000FFF7F2FF03BC00F0F5FC000009488047F0
:1001700009480047FEE7FEE7FEE7FEE7FEE7FEE789
:10018000FEE7FEE7FEE7FEE704480549054A064BA1
:1001900070470000990A0008ED0000086000002088
:1001A0006006002060020020600200207047704757
:1001B000704770477047754600F02CF8AE46050052
:1001C0006946534620F00700854618B020B5FFF772
:1001D000DBFFBDE820404FF000064FF000074FF076
:1001E00000084FF0000B21F00701AC46ACE8C00955
:1001F000ACE8C009ACE8C009ACE8C0098D4670475E
:1002000010B50446AFF300802046BDE81040FFF76C
:10021000A6BF0000004870470000002000BFFEE7B6
:1002200008B548208DF803000120ADF800006946AC
:10023000014800F067F808BD0008014008B510202B
:100240008DF803000120ADF8000003208DF80200B6
:100250006946024800F056F808BD00000008014059
:1002600010B5FFF7EBFF0120094908600A2000F0F4
:1002700095FC00200749C1F88001142000F06EFCB5
:100280000120034908601E2000F088FC10BD00001A
:1002900080012142000021427047000008B548203B
:1002A0008DF803000120ADF800006946014800F018
:1002B00029F808BD000C014008B50121082000F014
:1002C00075FA10208DF803000320ADF800008DF8BA
:1002D00002006946014800F015F808BD000C014015
:1002E00008B510208DF803000120ADF800000320B0
:1002F0008DF802006946024800F004F808BD0000CD
:10030000000C01402DE9F0410246002500260020A6
:1003100000230024002791F803C00CF00F0591F88A
:1003200003C00CF0100CBCF1000F03D091F802C018
:100330004CEA050591F800C0BCF1000F31D01468FB
:1003400000202BE04FF0010C0CFA00F3B1F800C0D4
:100350000CEA03069E4220D183004FF00F0C0CFAEA
:1003600003F7BC4305FA03FC4CEA040491F803C00C
:10037000BCF1280F06D14FF0010C0CFA00FCC2F8BA
:1003800014C00AE091F803C0BCF1480F05D14FF04A
:10039000010C0CFA00FCC2F810C0401C0828D1D394
:1003A0001460B1F800C0BCF1FF0F34DD54680020C8
:1003B0002EE000F1080C4FF0010808FA0CF3B1F838
:1003C00000C00CEA03069E4221D183004FF00F0CBF
:1003D0000CFA03F7BC4305FA03FC4CEA040491F859
:1003E00003C0BCF1280F05D100F1080C08FA0CF885
:1003F000C2F8148091F803C0BCF1480F07D100F196
:10040000080C4FF0010808FA0CF8C2F81080401CE4
:100410000828CED35460BDE8F08100BFFEE700009D
:1004200010B5002401200C490860052000F0B6FB3F
:10043000FFF734FF00E0641C074884380068012897
:1004400002D1B4F57A7FF6D3002003490860052075
:1004500000F0A4FB10BD00008481214210B5FFF71D
:100460003FFF01200C490860052000F097FB0120A8
:100470000A49C1F88401052000F090FB00200649DC
:100480000860052000F08AFB00200449C1F88401BF
:10049000052000F083FB10BD8081214200802142B5
:1004A00010B5FFF71DFF00200C490860052000F083
:1004B00075FB01200A49C1F88401052000F06EFB9C
:1004C000012006490860052000F068FB002004496F
:1004D000C1F88401052000F061FB10BD808121423C
:1004E0000080214270B50446FFF7FAFE254600263B
:1004F00013E0002011490860052000F04FFBE811CF
:100500000F49C1F8800101200C490860052000F066
:1005100045FB6806050E701CC6B2082EE9DB0020FC
:1005200006490860052000F039FB01200449C1F8A4
:100530008001052000F032FB70BD00008481214263
:100540000080214200BFFEE7704710B5002000F098
:1005500001F810BD70B50646002415E004F1B001A5
:10056000C8B200F0CBFA002000F0C8FA102000F06A
:10057000C5FA002504E0304600F0D6FA681CC5B282
:10058000802DF8DB601CC4B2082CE7DB70BD10B511
:10059000642000F0E3FAAE2000F0B0FA202000F072
:1005A000ADFA022000F0AAFAB02000F0A7FAC820A5
:1005B00000F0A4FA002000F0A1FA102000F09EFA4A
:1005C000402000F09BFA812000F098FAFF2000F014
:1005D00095FAA12000F092FAA62000F08FFAA82048
:1005E00000F08CFA3F2000F089FAA42000F086FA8F
:1005F000D32000F083FA002000F080FAD52000F02C
:100600007DFAF02000F07AFAD92000F077FA222063
:1006100000F074FADA2000F071FA122000F06EFA9D
:10062000DB2000F06BFA202000F068FA8D2000F04B
:1006300065FA142000F062FAAF2000F05FFAFFF7CD
:1006400084FF10BD70B504460D4605F1B001C8B277
:1006500000F054FA102141EA141000F04FFA04F0AF
:100660000F0000F04BFA70BD2DE9F04180460E46B8
:10067000174600247D0131464046FFF7E3FF00BFE7
:1006800006E00D49485D00F04FFA6D1C601CC4B2D5
:10069000102CF6DB701CC1B24046FFF7D3FF0024DC
:1006A00006E00549485D00F03FFA6D1C601CC4B2CD
:1006B000102CF6DBBDE8F0817C1400082DE9F04732
:1006C0000646894617469A464FF000080024002542
:1006D000BAF1010F03D0BAF1020F5ED125E020E09C
:1006E000785D203800F0FF087E2E04DD002609F139
:1006F000010000F0FF0949463046FFF7A3FF002440
:1007000009E008EB4801264A02EB4101085D00F0D0
:100710000BFA601CC4B2062CF3DBB01DC6B2681C19
:10072000C5B2785D0028DBD137E032E0785D203853
:1007300000F0FF08782E04DD002609F1010000F02A
:10074000FF0949463046FFF77DFF002407E004EB30
:100750000811144A505C00F0E7F9601CC4B2082C80
:10076000F5DB09F10100C1B23046FFF76BFF002451
:1007700008E004EB081108310A4A505C00F0D4F993
:10078000601CC4B2082CF4DB06F10800C6B2681C79
:10079000C5B2785D0028C9D100BF00BFBDE8F087B1
:1007A000540C00087C0E00087047000029B1064A6E
:1007B00092690243044B9A6104E0034A92698243BE
:1007C000014B9A6170470000001002402DE9F0478C
:1007D0000446FFF745FD01204A490860FFF720FD68
:1007E0004948D0F8000100287ED1002504E0681CAB
:1007F000C5B20A2000F0D2F942488038006808B932
:10080000642DF4DB002504E0681CC5B20A2000F06A
:10081000C5F93C4880380068012801D1642DF3DB1C
:1008200000F074F8064600F071F8074600F06EF824
:10083000804600F06BF8814600F068F88246FFF7CA
:10084000FDFC00202F490860322000F0A7F90120AC
:100850002D49C1F88001F01940444844504505D164
:100860002670677084F8028084F80390A0780A21CB
:1008700090FBF1F03030E072A07890FBF1F201FBD8
:100880001200303020732E216173E0780A2190FB32
:10089000F1F03030A073E07890FBF1F201FB120030
:1008A0003030E0737F2121740021617420780A21A7
:1008B00090FBF1F030302071207890FBF1F201FBD9
:1008C0001200303060712E21A17160780A2190FBF6
:1008D000F1F03030E071607890FBF1F201FB120032
:1008E00030302072252100E00AE061720021A172FF
:1008F0007F2161730021A1732521A1710021E17184
:10090000BDE8F087800121420000214270B5FFF769
:1009100087FC002517E000BF0D4800680028FBD0C9
:100920001E2000F03BF9002609480068012800D18C
:10093000012600BF064800680128FBD06006040EAF
:100940003443681CC5B2082DE5DB204670BD0000AD
:1009500000012142704710B500F002F810BD000000
:100960000CB50020019000903348006840F48030BE
:100970003149086000BF3048006800F40030009042
:100980000198401C0190009818B90198B0F5A06F2B
:10099000F1D12948006800F4003010B10120009026
:1009A00001E0002000900098012843D1234800680E
:1009B00040F01000214908600846006820F003005C
:1009C00008600846006840F0020008601A48406865
:1009D000194948600846406848600846406840F445
:1009E000806048600846406820F47C1048600846F3
:1009F000406840F4E81048600846006840F08070A5
:100A0000086000BF0C48006800F000700028F9D0B2
:100A10000948406820F003000749486008464068DC
:100A200040F00200486000BF0348406800F00C003E
:100A30000828F9D10CBD000000100240002002403F
:100A400030B50146B1F1807F01D3012030BD21F0E6
:100A50007F40401E4FF0E022506150170F220028C7
:100A600007DA13071D0E094B00F00F04241F1D5554
:100A700003E013071C0E064B1C5400BF00204FF070
:100A8000E0229061072010610020DFE718ED00E010
:100A900000E400E07047000010B51348006840F023
:100AA00001001149086008464068104908400E4995
:100AB0004860084600680E4908400B49086008462F
:100AC000006820F4802008600846406820F4FE009A
:100AD00048604FF41F008860FFF73DFF4FF0006053
:100AE0000449086010BD0000001002400000FFF83B
:100AF000FFFFF6FE08ED00E000BFFEE710B504467C
:100B0000FFF7ACFC7820FFF7EDFCFFF789FC002035
:100B1000FFF7E8FCFFF784FC2046FFF7E3FCFFF754
:100B20007FFCFFF7BDFC10BD10B50446FFF796FC37
:100B30007820FFF7D7FCFFF773FC4020FFF7D2FCCB
:100B4000FFF76EFC2046FFF7CDFCFFF769FCFFF7CF
:100B5000A7FC10BD014600BF7047000070B50446F9
:100B600000250D48FFF76CFF00BF09E000BF4FF004
:100B7000E020006900F480300028F8D0681C85B2BD
:100B8000A542F3D34FF0E020006920F001004FF0C0
:100B9000E021086170BD00004019010070B50446F5
:100BA00000254820FFF74CFF00BF09E000BF4FF0D1
:100BB000E020006900F480300028F8D0681C85B27D
:100BC000A542F3D34FF0E020006920F001004FF080
:100BD000E021086170BD000086B001210420FFF70C
:100BE000E5FDFFF769FBFFF7D2FC0022012110466B
:100BF000FFF73AFD012211461020FFF735FD0223D1
:100C000013A201212020FFF759FD02220521002017
:100C1000FFF72AFD032205211020FFF725FD0223FF
:100C20000BA205212020FFF749FD0FE001A8FFF7E7
:100C3000CDFD02230DF10F0201213020FFF73EFD13
:100C4000022302AA05213020FFF738FDEEE700005D
:100C50003A0000000000000000000000002F00002B
:100C600000000700070000147F147F1400242A7F6F
:100C70002A120062640813230036495522500000EE
:100C80000503000000001C224100000041221C005E
:100C90000014083E08140008083E0808000000A0E0
:100CA00060000008080808080000606000000020DC
:100CB00010080402003E5149453E0000427F4000BA
:100CC000004261514946002141454B310018141240
:100CD0007F10002745454539003C4A49493000010D
:100CE0007109050300364949493600064949291E5C
:100CF00000003636000000005636000000081422BE
:100D000041000014141414140000412214080002BD
:100D10000151090600324959513E007C1211127CE2
:100D2000007F49494936003E41414122007F41410F
:100D3000221C007F49494941007F09090901003E01
:100D40004149497A007F0808087F0000417F41003F
:100D5000002040413F01007F08142241007F4040B5
:100D60004040007F020C027F007F0408107F003E9D
:100D70004141413E007F09090906003E4151215E83
:100D8000007F091929460046494949310001017F80
:100D90000101003F4040403F001F2040201F003F16
:100DA0004038403F006314081463000708700807C8
:100DB00000615149454300007F41410000552A55DB
:100DC0002A55000041417F00000402010204004056
:100DD0004040404000000102040000205454547878
:100DE000007F484444380038444444200038444498
:100DF000487F00385454541800087E090102001836
:100E0000A4A4A47C007F080404780000447D400072
:100E1000004080847D00007F102844000000417F56
:100E20004000007C04180478007C08040478003832
:100E30004444443800FC242424180018242418FCBA
:100E4000007C0804040800485454542000043F4423
:100E50004020003C4040207C001C2040201C003CE6
:100E60004030403C004428102844001CA0A0A07C36
:100E7000004464544C44141414141414000000006E
:100E8000000000000000000000000000000000F86A
:100E900000000000000000333000000000100C06CD
:100EA000100C0600000000000000000040C0784068
:100EB000C0784000043F04043F040400007088FC34
:100EC00008300000001820FF211E0000F008F0008C
:100ED000E018000000211C031E211E0000F00888FD
:100EE000700000001E2123241927211010160E0067
:100EF000000000000000000000000000000000E012
:100F00001804020000000007182040000002041826
:100F1000E00000000040201807000000404080F082
:100F2000804040000202010F01020200000000F0B8
:100F3000000000000101011F01010100000000008C
:100F40000000000080B07000000000000000000001
:100F5000000000000001010101010101000000008A
:100F60000000000000303000000000000000000021
:100F700080601804006018060100000000E01008FE
:100F80000810E000000F102020100F00001010F8D3
:100F9000000000000020203F202000000070080812
:100FA0000888700000302824222130000030088892
:100FB000884830000018202020110E000000C020BA
:100FC00010F8000000070424243F240000F80888DB
:100FD000880808000019212020110E0000E0108868
:100FE00088180000000F112020110E00003808089A
:100FF000C83808000000003F0000000000708808AA
:1010000008887000001C222121221C0000E010082A
:101010000810E0000000312222110F00000000C083
:10102000C000000000000030300000000000008020
:101030000000000000008060000000000000804010
:101040002010080000010204081020004040404029
:10105000404040000404040404040400000810207C
:1010600040800000002010080402010000704808C1
:101070000808F0000000003036010000C030C82829
:10108000E810E0000718272423140B000000C038E4
:10109000E0000000203C23020227382008F888885E
:1010A00088700000203F202020110E00C03008086A
:1010B00008083800071820202010080008F8080841
:1010C0000810E000203F202020100F0008F888883A
:1010D000E8081000203F20202320180008F8888806
:1010E000E8081000203F200003000000C03008087E
:1010F0000838000007182020221E020008F8080007
:101100000008F808203F210101213F20000808F8CD
:10111000080800000020203F2020000000000808F0
:10112000F8080800C08080807F00000008F888C0B0
:1011300028180800203F20012638200008F8080061
:1011400000000000203F20202020300008F8F80098
:10115000F8F80800203F003F003F200008F830C0AA
:101160000008F808203F200007183F00E01008089A
:101170000810E0000F10202020100F0008F80808C9
:101180000808F000203F210101010000E0100808DC
:101190000810E0000F18242438504F0008F8888801
:1011A00088887000203F2000030C302000708808E1
:1011B000080838000038202121221C00180808F8EF
:1011C000080818000000203F2000000008F8080070
:1011D0000008F808001F202020201F000878880041
:1011E00000C83808000007380E010000F80800F8B1
:1011F0000008F800033C0700073C0300081868805B
:101200008068180820302C03032C30200838C800D0
:10121000C83808000000203F20000000100808081F
:10122000C83808002038262120201800000000FEC1
:10123000020202000000007F40404000000C30C06D
:1012400000000000000000010638C0000002020299
:10125000FE000000004040407F000000000004024B
:101260000202040000000000000000000000000076
:101270000000000080808080808080800002020466
:10128000000000000000000000000000000080805E
:10129000808000000019242222223F2008F80080CC
:1012A00080000000003F112020110E00000000808F
:1012B00080800000000E112020201100000000801E
:1012C0008088F800000E112020103F200000808050
:1012D00080800000001F222222221300008080F064
:1012E000888888180020203F20200000000080808F
:1012F00080808000006B94949493600008F80080D4
:1013000080800000203F210000203F20008098982E
:10131000000000000020203F20200000000000808E
:101320009898000000C08080807F000008F80000CE
:1013300080808000203F24022D302000000808F823
:10134000000000000020203F2020000080808080DE
:1013500080808000203F20003F20003F8080008070
:1013600080800000203F210000203F20000080807E
:1013700080800000001F202020201F00808000802F
:101380008000000080FFA12020110E0000000080DE
:1013900080808000000E112020A0FF8080808000CF
:1013A0008080800020203F212000010000008080FC
:1013B000808080000033242424241900008080E0F1
:1013C000808000000000001F2020000080800000BE
:1013D00000808000001F202020103F20808080009F
:1013E0000080808000010E300806010080800080AF
:1013F000008080800F300C030C300F0000808000D4
:10140000808080000020312E0E31200080808000FE
:101410000080808080818E701806010000808080AE
:10142000808080000021302C22213000000000004C
:10143000807C020200000000003F404000000000ED
:10144000FF00000000000000FF0000000002027C1E
:10145000800000000040403F000000000006010145
:101460000202040400000000000000000C8C700860
:101470000804040800030C10202020101060028CC7
:101480000000FE9292929292FE00000004047E01FF
:10149000407E42427E427E42427E40000000FC246A
:1014A0002424FC252624FC242424040040308F809E
:1014B000844C55252525554C808080001060028C79
:1014C00000FE929292929292FE00000004047E012D
:1014D0004448507F40407F50484440000000FC2476
:1014E0002424FC252624FC242424040040308F805E
:1014F000844C55252525554C808080000C1500080E
:0C15000000000020600600002801000828
:04000005080000ED02
:00000001FF
