:0300000002000EED
:10000B0002009A787FE4F6D8FD75810B0200550249
:10001B0000DFE493A3F8E493A34003F68001F20816
:10002B00DFF48029E493A3F85407240CC8C333C42A
:10003B00540F4420C8834004F456800146F6DFE495
:10004B00800B01020408102040809000EDE47E013B
:10005B009360BCA3FF543F30E509541FFEE493A308
:10006B0060010ECF54C025E060A840B8E493A3FA1A
:10007B00E493A3F8E493A3C8C582C8CAC583CAF0A6
:10008B00A3C8C582C8CAC583CADFE9DEE780BEC084
:10009B00E00509E5097002050864054508700E05C1
:1000AB000BE50B7002050A750800750900D0E032EC
:1000BB00D28CE50BB507FBE50AB506F6E4F50AF5B8
:1000CB000BC28C22758902D2AFD2A9758A38758C76
:1000DB0038C28C221200CFB2A07FF47E011200BB7B
:0B00EB0080F502080000020A0000007F
:00000001FF
