:020000040800F2
:1000000068080020890100085D0400082504000834
:1000100059040008390200086D08000800000000BB
:10002000000000000000000000000000750500084E
:100030000D030008000000005F04000861060008CE
:10004000A3010008A3010008A3010008A301000800
:10005000A3010008A3010008A3010008A3010008F0
:10006000A3010008A3010008A3010008A3010008E0
:10007000A3010008A3010008A3010008A3010008D0
:10008000A3010008A3010008A3010008A3010008C0
:10009000A3010008A3010008A3010008A3010008B0
:1000A000A3010008A3010008A3010008A3010008A0
:1000B000A3010008A3010008A3010008A301000890
:1000C000A3010008A3010008A3010008A301000880
:1000D000A3010008A3010008A3010008A301000870
:1000E000A3010008A3010008A301000800F002F822
:1000F00000F03AF80AA090E8000C82448344AAF188
:100100000107DA4501D100F02FF8AFF2090EBAE885
:100110000F0013F0010F18BFFB1A43F0010318473B
:100120001008000030080000103A24BF78C878C1D9
:10013000FAD8520724BF30C830C144BF04680C60ED
:10014000704700000023002400250026103A28BF35
:1001500078C1FBD8520728BF30C148BF0B60704739
:100160001FB51FBD10B510BD00F033F81146FFF7E5
:10017000F7FF00F0A5FB00F051F803B4FFF7F2FF22
:1001800003BC00F075FB00000948804709480047A0
:10019000FEE7FEE7FEE7FEE7FEE7FEE7FEE7FEE737
:1001A000FEE7FEE704480549054A064B7047000094
:1001B00075060008ED0000086802002068080020AD
:1001C000680400206804002070477047704770473B
:1001D0007047754600F02CF8AE4605006946534658
:1001E00020F00700854618B020B5FFF7DBFFBDE81B
:1001F00020404FF000064FF000074FF000084FF08E
:10020000000B21F00701AC46ACE8C009ACE8C0091E
:10021000ACE8C009ACE8C0098D46704710B504468B
:10022000AFF300802046BDE81040FFF7A6BF0000F6
:10023000004870470802002000BFFEE700B58BB001
:100240000121084600F00CF9114800901148019076
:1002500010200290802005900020079004900690C6
:100260004FF4FA700390002008904FF4005009906A
:1002700000200A906946084800F02AF84FF4005020
:1002800000F00CF80121044800F016F80BB000BD96
:1002900004380140140000204400024000F0805166
:1002A00011B10349086001E002494860704700004D
:1002B000040402400000024021B1026842F0010241
:1002C000026004E002684FF6FE731A400260704755
:1002D00010B50022026847F6F0739A430C6A8B68E7
:1002E00023430C6923434C6923438C692343CC6922
:1002F00023434C6A23438C6A23431A430260CB682E
:1003000043600B6883604B68C36010BD70472DE984
:10031000F04102460025002600200023002400278B
:1003200091F803C00CF00F0591F803C00CF0100C0D
:10033000BCF1000F03D091F802C04CEA050591F81A
:1003400000C0BCF1000F31D0146800202BE04FF04A
:10035000010C0CFA00F3B1F800C00CEA03069E424F
:1003600020D183004FF00F0C0CFA03F7BC4305FAC1
:1003700003FC4CEA040491F803C0BCF1280F06D139
:100380004FF0010C0CFA00FCC2F814C00AE091F81E
:1003900003C0BCF1480F05D14FF0010C0CFA00FC72
:1003A000C2F810C0401C0828D1D31460B1F800C0B6
:1003B000BCF1FF0F34DD546800202EE000F1080C82
:1003C0004FF0010808FA0CF3B1F800C00CEA03067C
:1003D0009E4221D183004FF00F0C0CFA03F7BC436F
:1003E00005FA03FC4CEA040491F803C0BCF1280FA1
:1003F00005D100F1080C08FA0CF8C2F8148091F845
:1004000003C0BCF1480F07D100F1080C4FF0010800
:1004100008FA0CF8C2F81080401C0828CED35460AB
:10042000BDE8F08100BFFEE708B50121082000F01B
:1004300027F80320ADF800008DF8020010208DF899
:10044000030069460348FFF762FF032001491031AA
:10045000086008BD000C014000BFFEE77047704710
:1004600029B1064A52690243044B5A6104E0034A27
:1004700052698243014B5A617047000000100240EC
:1004800029B1064A92690243044B9A6104E0034A87
:1004900092698243014B9A6170470000001002404C
:1004A00030B500210022002400232D4D6D6805F099
:1004B0000C0121B1042905D0082923D105E0294DDB
:1004C000056022E0274D05601FE0254D6D6805F4AD
:1004D0007012234D6D6805F48034022505EB9242BD
:1004E0001CB9214D554305600BE01D4D6D6805F4A9
:1004F00000351DB11C4D5543056002E0194D5543B3
:10050000056002E0174D056000BF00BF144D6D6827
:1005100005F0F0010909154D6B5C0568DD4045608B
:100520000F4D6D6805F4E061090A104D6B5C45687C
:10053000DD4085600A4D6D6805F46051C90A0B4DB8
:100540006B5C4568DD40C560054D6D6805F4404154
:10055000890B074D6B5CC568B5FBF3F5056130BDD4
:100560000010024000127A0000093D000000002047
:1005700010000020704710B500F002F810BD000018
:100580000CB50020019000903348006840F48030A2
:100590003149086000BF3048006800F40030009026
:1005A0000198401C0190009818B90198B0F5A06F0F
:1005B000F1D12948006800F4003010B1012000900A
:1005C00001E0002000900098012843D123480068F2
:1005D00040F01000214908600846006820F0030040
:1005E00008600846006840F0020008601A48406849
:1005F000194948600846406848600846406840F429
:10060000806048600846406820F47C1048600846D6
:10061000406840F4E81048600846006840F0807088
:10062000086000BF0C48006800F000700028F9D096
:100630000948406820F003000749486008464068C0
:1006400040F00200486000BF0348406800F00C0022
:100650000828F9D10CBD0000001002400020024023
:1006600070474FF0E020006960F004004FF0E02197
:100670000861704710B51348006840F00100114947
:10068000086008464068104908400E49486008461E
:1006900000680E4908400B4908600846006820F4CD
:1006A000802008600846406820F4FE0048604FF44F
:1006B0001F008860FFF75FFF4FF00060044908608B
:1006C00010BD0000001002400000FFF8FFFFF6FE22
:1006D00008ED00E008B501210420FFF7D1FE182045
:1006E0008DF803004FF40070ADF8000003208DF882
:1006F000020069460848FFF70AFE04208DF803004F
:100700000002ADF8000003208DF80200694602489F
:10071000FFF7FDFD08BD00000008014010B5FFF720
:10072000D9FF00F001F810BD1FB501218803FFF7C4
:10073000A7FE4FF4E13000900020ADF80C000C2033
:10074000ADF80A000020ADF80800ADF80600ADF8DD
:1007500004006946034800F01DF80121014800F03B
:1007600003F81FBD0038014021B1828942F40052D4
:10077000828104E082894DF6FF731A4082817047BE
:100780001AB1838A0B43838202E0838A8B4383827C
:10079000704700002DE9F04786B005460E4600245C
:1007A000A24600BFA1460027B08900B100BF2F4676
:1007B0002C8A4CF6FF700440F08804432C82AC89EC
:1007C0004EF6F3100440B08831890843718908431C
:1007D0000443AC81AC8A4FF6FF400440B089044327
:1007E000AC8201A8FFF75CFE1F48874202D1DDF80A
:1007F00010A001E0DDF80CA0A88900F4004040B191
:100800000AEBCA0000EB0A1031684900B0FBF1F8AE
:1008100007E00AEBCA0000EB0A1031688900B0FB60
:10082000F1F86420B8FBF0F004012009642101FB19
:100830001089A88900F4004040B1322000EBC900C3
:10084000B0FBF1F000F00700044308E0322000EBB9
:1008500009106421B0FBF1F000F00F0004432C817B
:1008600006B0BDE8F08700000038014000BFFEE799
:10087000014600BF7047014601EBC1024FF47A7395
:100880005A434FF0E0235A6100229A611A461269D6
:1008900042F001021A6100BF4FF0E022106900F43B
:1008A00080321AB900F00102002AF5D100224FF07F
:1008B000E0239A611A46126900221A61704700000B
:1008C0000024FFF7CEFEFFF7AFFDFFF727FFFFF78E
:1008D000B5FC00BF04E0412011490855601C84B2FA
:1008E000B4F5FA7FF7DB012280210E48FFF748FFBD
:1008F00015E000200C49086001200C49C1F8840172
:100900004FF4FA70FFF7B7FF012007490860002095
:100910000649C1F884014FF4FA70FFF7ACFFE8E72D
:1009200014000020003801408081214200802142D3
:1009300050090008000000201400000028010008F1
:100940006409000814000020540800004401000855
:100950000000000001020304010203040607080965
:04096000020406087F
:04000005080000ED02
:00000001FF
