:1003E8003C42423C00007E004E4A4A7A4A4A4A7ED3
:1003F80018287E087A4A4A4E7E4A4A4E40404E7035
:080408007E4A4A7E7A4A4A7ED0
:0F042000010A00010B00010C0001090001080096
:0B043000EF1FAC0670011E4C70F6229E
:0903B9007F647E00120430E4FFB1
:1003C200E4FEC2B6C2B5EFC4131313540124FF9264
:1003D200B4EF25E0FFD2B60000C2B60EBE08E7D2E7
:0503E200B50000C2B5EA
:0103E70022F3
:10001600E4FD75807FE509B40325E50B75F00A84D8
:1000260025E025E024E8F582E43403F583E5822D16
:10003600F582E43583F583E49325E044018021E5E8
:100046000B75F00A8425E025E024E8F582E4340304
:10005600F583E5822DF582E43583F583E49325E087
:10006600FF1203C21203B9E580C3134480F5800D65
:10007600BD04A2E4FDE509B40327E50B75F00A8487
:10008600E5F025E025E024E8F582E43403F583E590
:10009600822DF582E43583F583E49325E0440180DF
:1000A60023E50B75F00A84E5F025E025E024E8F564
:1000B60082E43403F583E5822DF582E43583F58306
:1000C600E49325E0FF1203C21203B9E580C313448B
:1000D60080F5800DED6404709C75907FE4FDE50964
:1000E600B40225E50C75F00A8425E025E024E8F540
:1000F60082E43403F583E5822DF582E43583F583C6
:10010600E49325E044018021E50C75F00A8425E09E
:1001160025E024E8F582E43403F583E5822DF582B3
:10012600E43583F583E49325E0FF1203C21203B995
:10013600E590C3134480F5900DBD04A2E4FDE509E6
:10014600B40227E50C75F00A84E5F025E025E024E5
:10015600E8F582E43403F583E5822DF582E4358300
:10016600F583E49325E044018023E50C75F00A84C9
:10017600E5F025E025E024E8F582E43403F583E59F
:10018600822DF582E43583F583E49325E0FF12039F
:10019600C21203B9E590C3134480F5900DED6404D3
:1001A600709C75A07FE4FDE509B40125E50A75F0AC
:1001B6000A8425E025E024E8F582E43403F583E5A6
:1001C600822DF582E43583F583E49325E0440180AE
:1001D60021E50A75F00A8425E025E024E8F582E4A5
:1001E6003403F583E5822DF582E43583F583E493C4
:1001F60025E0FF1203C21203B9E5A0C3134480F53C
:10020600A00DBD04A2E4FDE509B40127E50A75F0D9
:100216000A84E5F025E025E024E8F582E43403F5D8
:1002260083E5822DF582E43583F583E49325E04466
:10023600018023E50A75F00A84E5F025E025E0242F
:10024600E8F582E43403F583E5822DF582E435830F
:10025600F583E49325E0FF1203C21203B9E5A0C3B8
:0B026600134480F5A00DED6404709CB3
:01027100226A
:10041000758901D2AFD2A9D28C758C3C758AB02275
:0B043B00D288D28AD2A8D2AAD2AF2267
:0B04460012043B12041012001680FB91
:03000B0002034DA0
:04034D00C0E0C0D07C
:10035100758C3C758AB00508E508B4142175080050
:10036100050AE50AB43C17750A00050CE50CB43C16
:0E0371000D750C00050BE50BB41803750B00A1
:05037F00D0D0D0E032F7
:030003000202FEF8
:1002FE00C0E0C0D075D000C004C006C0077FDC7E51
:10030E000512043020B22DE509B4010A050AE50AEA
:10031E00B43C03750A00E509B4020A050CE50CB4F9
:10032E003C03750C00E509B4030A050BE50BB41884
:0F033E0003750B00D007D006D004D0D0D0E0322A
:0300130002038461
:10038400C0E0C0D075D000C004C006C0077FDC7ECA
:100394000512043020B3020509E509B40102C28C38
:1003A400E509B40405750900D28CD007D006D00441
:0503B400D0D0D0E032C2
:0300000002027287
:0C027200787FE4F6D8FD75810C0202B91B
:10027E00020446E493A3F8E493A34003F68001F24C
:10028E0008DFF48029E493A3F85407240CC8C33381
:10029E00C4540F4420C8834004F456800146F6DF50
:1002AE00E4800B0102040810204080900420E47EBC
:1002BE00019360BCA3FF543F30E509541FFEE49345
:1002CE00A360010ECF54C025E060A840B8E493A30C
:1002DE00FAE493A3F8E493A3C8C582C8CAC583CA37
:1002EE00F0A3C8C582C8CAC583CADFE9DEE780BEEF
:01042F0000CC
:00000001FF
