:0A048F003F065B4F666D7D077F6F2F
:10045D00020C0000020E0000021000000208000055
:06046D00010A00010B0072
:0B048400EF1FAC0670011E4C70F6224A
:10047400758901D2AFD2A9C28C758CEC758A7822A9
:09049900D2A8D2AAD288D28A228C
:10001600E4FBFAE512600302010EEA60030201EA5C
:10002600EB14B4080040030201EA90003E75F003A9
:10003600A4C58325F0C58373020056020072020030
:100046008D0200990200B40200D80200FA020102F1
:10005600C2A4C2A3C2A2AE10AF117C007D0A1203D5
:1000660032748F2DF58274043C0200F1C2A4C2A33F
:10007600D2A2AE10AF117C007D0A120332748F2F0C
:10008600F58274043E8064C2A4D2A3C2A2AE0CAFB1
:100096000D8025C2A4D2A3D2A2AE0CAF0D7C007DEA
:1000A6000A120332748F2FF58274043E803DD2A467
:1000B600C2A3C2A2AE0EAF0F7C007D0A1203327439
:1000C6008F2DF58274043CF583E4934480F5800219
:1000D60001EAD2A4C2A3D2A2AE0EAF0F7C007D0A63
:1000E600120332748F2FF58274043EF583E493F580
:1000F600800201EAD2A4D2A3C2A28006D2A4D2A3CD
:10010600D2A2E4F5800201EAEA60030201EAEB14F6
:10011600B4080040030201EA90012C75F003A4C55F
:100126008325F0C5837302014402015C0201720259
:1001360001820201980201B80201D10201DCC2A4C7
:10014600C2A3C2A2E51275F003A42410F8E675F066
:100156000A84E5F08070C2A4C2A3D2A2E51275F0AB
:1001660003A42410F8E675F00A84805AC2A4D2A328
:10017600C2A2E51275F003A424118024C2A4D2A35E
:10018600D2A2E51275F003A42411F8E675F00A84EC
:100196008034D2A4C2A3C2A2E51275F003A424122D
:1001A600F8E675F00A84E5F090048F934480F580B4
:1001B6008032D2A4C2A3D2A2E51275F003A42412FF
:1001C600F8E675F00A8490048F8016D2A4D2A3C2F2
:1001D600A2758040800ED2A4D2A3D2A2E5129004CA
:1001E6008E93F5807F647E00120484E4F5800BBB59
:0C01F60000010AEB64094A6003020019D2
:0102020022D9
:10040D0020B120E5094508701A7FE87E03120484A7
:10041D0020B1107508007509010512E512640B7005
:0B042D0002F51230B105E4F508F509F6
:0104380022A1
:1003D200120474120499E4FFEFC3940A74809480A7
:1003E2005021EF75F003A42413F8E4F6EF75F0033F
:1003F200A42414F8E4F6EF75F003A42415F8E4F647
:0B0402000F80D512001612040D80F8C8
:03000300020439BB
:10043900C0E0C0D075D000C004C006C0077FD07E20
:100449000712048420B202B28CD007D006D004D09F
:04045900D0D0E032ED
:03001300020203E3
:10020300C0E0C0F0C0D075D000C000C004C005C0BD
:0302130006C0071B
:10021600E4FD7FE87E0312048420B342208C3F7500
:100226000C00750D00750E00750F00751000751128
:1002360000C28CEDC3940A748094805021ED75F051
:1002460003A42413F87600ED75F003A42414F876BD
:1002560000ED75F003A42415F876000D80D520B3C3
:100266002E308C2BE50A75F003A42413F8A611E5AD
:100276000A75F003A42414F8A60DE50A75F003A484
:0F0286002415F8A60F050AE50A640A7002F50AA6
:10029500D007D006D005D004D000D0D0D0F0D0E023
:0102A5003226
:03000B0002038766
:02038700C0E0D4
:10038900758CEC758A78050BE50B64027038F50BF2
:100399000511E51170020510646445107028F51007
:1003A900F511050DE50D7002050C643C450C701640
:1003B900F50CF50D050FE50F7002050E6464450E89
:0603C9007004F50EF50FB3
:0303CF00D0E03249
:030000000202A653
:0C02A600787FE4F6D8FD7581300202ED8F
:10033200BC000BBE0029EF8DF084FFADF022E4CCAF
:10034200F875F008EF2FFFEE33FEEC33FCEE9DEC78
:10035200984005FCEE9DFE0FD5F0E9E4CEFD22EDBE
:10036200F8F5F0EE8420D21CFEADF075F008EF2F08
:10037200FFED33FD4007985006D5F0F222C398FDF9
:050382000FD5F0EA2296
:1002B2000203D2E493A3F8E493A34003F68001F28D
:1002C20008DFF48029E493A3F85407240CC8C3334D
:1002D200C4540F4420C8834004F456800146F6DF1C
:1002E200E4800B010204081020408090045DE47E4B
:1002F200019360BCA3FF543F30E509541FFEE49311
:10030200A360010ECF54C025E060A840B8E493A3D7
:10031200FAE493A3F8E493A3C8C582C8CAC583CA02
:10032200F0A3C8C582C8CAC583CADFE9DEE780BEBA
:010473000088
:00000001FF
