:070CEB00010F0002100000E0
:100C4100E4F512F9E5A0543CF512E50F1460171410
:100C5100605524027059E512643C6053750F01E43C
:100C6100F510F5118049E512643C60360511E51176
:100C710070020510D3940FE51094004032E5122460
:100C8100D4601024F8601024FC6010241C700E79CC
:100C910001800A79028006790380027904750F02C6
:100CA100800DE4F50F8008E512643C7002F50FAF8A
:010CB1000141
:010CB200221F
:0A0D5E003F065B4F666D7D077F6F57
:100CF200010E0A010C0A010D01C18001080001095F
:070D020000010A00010B00D3
:0A0D3B00900D5E93F5807F647E004A
:0B0D4500EF1FAC0670011E4C70F62280
:10080000AF0DEF64016008EF640260030208AEC23E
:10081000A0D2A1E50E75F00A84E5F0120D3BE4F5D7
:1008200080AF0EFED3EF940274809480401CEF24BE
:10083000FEFFEE34FFFE7C007D0A120BB6745E2DC7
:10084000F582740D3CF583E4800BE50E75F00A84A7
:10085000E5F0900D5E93F5907FC87E00120D45E4A3
:10086000F590D2A0C2A1E50E75F00A84120D3BE40A
:10087000F580AF0EFED3EF940274809480401CEF9D
:1008800024FEFFEE34FFFE7C007D0A120BB6745E80
:100890002FF582740D3EF583E48009E50E75F00AAC
:1008A00084900D5E93F5907FC87E000209ACAF0D79
:1008B000EF64036008EF6404600302096CC2A0D215
:1008C000A1E50E75F00A84E5F0900D5E93F59012A7
:1008D0000D41E4F590AF0EFED3EF94027480948046
:1008E000401CEF24FEFFEE34FFFE7C007D0A120B5D
:1008F000B6745E2DF582740D3CF583E4800BE50E35
:1009000075F00A84E5F0900D5E93F5807FC87E0057
:10091000120D45E4F580D2A0C2A1E50E75F00A845F
:10092000900D5E93F590120D41E4F590AF0EFED35D
:10093000EF940274809480401CEF24FEFFEE34FF9D
:10094000FE7C007D0A120BB6745E2FF582740D3E9C
:10095000F583E48009E50E75F00A84900D5E93F549
:10096000807FC87E00120D45E4F58022AF0DEF6454
:1009700006600AEF64076005EF64087035C2A0D214
:10098000A175803F120D41E4F58075903F7F64FEB4
:10099000120D45E4F590D2A0C2A175803F7F64FEA0
:1009A000120D45E4F58075903F7F64FE120D45E41D
:0309B000F590229D
:100A7700AF0D7E00EF64017027C2B3D2B5D2B4D2F6
:100A8700B0E50E24FEFDE434FFFCD3ED9403EC64E3
:100A97008094804004C2B28004A20092B2D2B122F4
:100AA700EF64024E7008C2B3D2B5D2B4804EAF0D18
:100AB7007E00EF6403701ED2B3E50E24FEFDE4341E
:100AC700FFFCD3ED9403EC648094804004C2B580AE
:100AD7003CC2B28038EF64044E7008D2B3D2B5C2BC
:100AE700B4802CAF0D7E00EF64057004750D0122F4
:100AF700EF64064E700DD2B3D2B5C2B4D2B0D2B243
:100B0700C2B122EF64074E700DD2B3C2B5D2B4C2E0
:100B1700B0D2B2D2B122C2B3D2B5D2B4D2B0C2B27D
:030B2700D2B12226
:1009B300120C41EFFD7C006404700D0508E508642A
:1009C300017003850D09C28CED64034C702B208CE0
:1009D30028E50EC3943C74809480501DE50DFD649E
:1009E30001600FED6402600AED64036005ED6404C9
:1009F3007007050E050E850E0CEF6402702B208C1C
:100A030028E50ED3941474809480401DE50DFD6495
:100A130001600FED6402600AED64036005ED640498
:100A23007007150E150E850E0CEF64017018AF0DCF
:100A3300EF6401600FEF6402600AEF64036005EF87
:100A430064047002B28CAF087E00EF64017003751A
:100A53000D06EF64024E7003750D07EF64034E70CD
:100A630003750D08EF64044E700985090DF509D26D
:030A73008CF508F7
:010A7600225D
:100D0A00758911D2AFD2A9D28CD2ABD28E758C3C56
:0A0D1A00758AB0758D3C758BB02210
:0E0D5000120D0A120800120A771209B380F57C
:03000B00020CB331
:090CB300C0E0C0D075D000C007FC
:100CBC00758C3C758AB0050AE50A6414701AF50A3D
:100CCC00150EE50E7005850C0E050DE50E24FEFFC8
:080CDC00E434FF4F7002050D26
:070CE400D007D0D0D0E032B0
:03001B00020D24AF
:020D2400C0E02D
:100D2600758D3C758BB0050BE50B640A7004F50BED
:020D3600B20009
:030D3800D0E032D6
:03000000020B2AC6
:0C0B2A00787FE4F6D8FD758120020B7185
:100BB600C2D5EC30E709B2D5E4C39DFDE49CFCEE5A
:100BC60030E715B2D5E4C39FFFE49EFE120BECC3DB
:100BD600E49DFDE49CFC8003120BEC30D507C3E4D6
:060BE6009FFFE49EFE22C9
:100B3600020D50E493A3F8E493A34003F68001F278
:100B460008DFF48029E493A3F85407240CC8C333C0
:100B5600C4540F4420C8834004F456800146F6DF8F
:100B6600E4800B0102040810204080900CEBE47E28
:100B7600019360BCA3FF543F30E509541FFEE49384
:100B8600A360010ECF54C025E060A840B8E493A34B
:100B9600FAE493A3F8E493A3C8C582C8CAC583CA76
:100BA600F0A3C8C582C8CAC583CADFE9DEE780BE2E
:010D090000E9
:100BEC00BC000BBE0029EF8DF084FFADF022E4CCED
:100BFC00F875F008EF2FFFEE33FEEC33FCEE9DECB6
:100C0C00984005FCEE9DFE0FD5F0E9E4CEFD22EDFB
:100C1C00F8F5F0EE8420D21CFEADF075F008EF2F45
:100C2C00FFED33FD4007985006D5F0F222C398FD36
:050C3C000FD5F0EA22D3
:00000001FF
